{
  "address": "0x5876cCA677D6e270ad4169212A17CdCfaA38CD33",
  "abi": [
    {
      "inputs": [],
      "name": "NFTFactory__EmptyName",
      "type": "error"
    },
    {
      "inputs": [],
      "name": "NFTFactory__EmptySymbol",
      "type": "error"
    },
    {
      "inputs": [],
      "name": "NFTFactory__NotCollectionOwner",
      "type": "error"
    },
    {
      "anonymous": false,
      "inputs": [
        {
          "indexed": true,
          "internalType": "address",
          "name": "nftContract",
          "type": "address"
        },
        {
          "indexed": true,
          "internalType": "address",
          "name": "owner",
          "type": "address"
        },
        {
          "indexed": false,
          "internalType": "string",
          "name": "name",
          "type": "string"
        },
        {
          "indexed": false,
          "internalType": "string",
          "name": "symbol",
          "type": "string"
        },
        {
          "indexed": false,
          "internalType": "string",
          "name": "description",
          "type": "string"
        },
        {
          "indexed": false,
          "internalType": "string",
          "name": "columns",
          "type": "string"
        },
        {
          "indexed": true,
          "internalType": "uint256",
          "name": "collectionId",
          "type": "uint256"
        }
      ],
      "name": "CollectionCreated",
      "type": "event"
    },
    {
      "anonymous": false,
      "inputs": [
        {
          "indexed": true,
          "internalType": "address",
          "name": "nftContract",
          "type": "address"
        },
        {
          "indexed": false,
          "internalType": "bool",
          "name": "isActive",
          "type": "bool"
        }
      ],
      "name": "CollectionStatusUpdated",
      "type": "event"
    },
    {
      "inputs": [],
      "name": "BASE_TOKEN_URI",
      "outputs": [
        {
          "internalType": "string",
          "name": "",
          "type": "string"
        }
      ],
      "stateMutability": "view",
      "type": "function"
    },
    {
      "inputs": [
        {
          "internalType": "address",
          "name": "nftContract",
          "type": "address"
        },
        {
          "internalType": "address[]",
          "name": "recipients",
          "type": "address[]"
        }
      ],
      "name": "batchMintNFTs",
      "outputs": [
        {
          "internalType": "uint256[]",
          "name": "",
          "type": "uint256[]"
        }
      ],
      "stateMutability": "nonpayable",
      "type": "function"
    },
    {
      "inputs": [
        {
          "internalType": "string",
          "name": "name",
          "type": "string"
        },
        {
          "internalType": "string",
          "name": "symbol",
          "type": "string"
        },
        {
          "internalType": "string",
          "name": "description",
          "type": "string"
        },
        {
          "internalType": "string",
          "name": "columns",
          "type": "string"
        }
      ],
      "name": "createCollection",
      "outputs": [
        {
          "internalType": "address",
          "name": "",
          "type": "address"
        }
      ],
      "stateMutability": "nonpayable",
      "type": "function"
    },
    {
      "inputs": [],
      "name": "getActiveCollections",
      "outputs": [
        {
          "internalType": "address[]",
          "name": "",
          "type": "address[]"
        }
      ],
      "stateMutability": "view",
      "type": "function"
    },
    {
      "inputs": [],
      "name": "getAllCollections",
      "outputs": [
        {
          "internalType": "address[]",
          "name": "",
          "type": "address[]"
        }
      ],
      "stateMutability": "view",
      "type": "function"
    },
    {
      "inputs": [
        {
          "internalType": "address",
          "name": "nftContract",
          "type": "address"
        }
      ],
      "name": "getCollectionInfo",
      "outputs": [
        {
          "components": [
            {
              "internalType": "address",
              "name": "nftContract",
              "type": "address"
            },
            {
              "internalType": "address",
              "name": "owner",
              "type": "address"
            },
            {
              "internalType": "string",
              "name": "name",
              "type": "string"
            },
            {
              "internalType": "string",
              "name": "symbol",
              "type": "string"
            },
            {
              "internalType": "string",
              "name": "description",
              "type": "string"
            },
            {
              "internalType": "string",
              "name": "columns",
              "type": "string"
            },
            {
              "internalType": "uint256",
              "name": "createdAt",
              "type": "uint256"
            },
            {
              "internalType": "bool",
              "name": "isActive",
              "type": "bool"
            }
          ],
          "internalType": "struct NFTFactory.Collection",
          "name": "",
          "type": "tuple"
        }
      ],
      "stateMutability": "view",
      "type": "function"
    },
    {
      "inputs": [
        {
          "internalType": "address",
          "name": "nftContract",
          "type": "address"
        }
      ],
      "name": "getCollectionStats",
      "outputs": [
        {
          "internalType": "uint256",
          "name": "totalSupply",
          "type": "uint256"
        },
        {
          "internalType": "address",
          "name": "owner",
          "type": "address"
        },
        {
          "internalType": "bool",
          "name": "isActive",
          "type": "bool"
        },
        {
          "internalType": "uint256",
          "name": "createdAt",
          "type": "uint256"
        }
      ],
      "stateMutability": "view",
      "type": "function"
    },
    {
      "inputs": [],
      "name": "getTotalCollections",
      "outputs": [
        {
          "internalType": "uint256",
          "name": "",
          "type": "uint256"
        }
      ],
      "stateMutability": "view",
      "type": "function"
    },
    {
      "inputs": [
        {
          "internalType": "address",
          "name": "user",
          "type": "address"
        }
      ],
      "name": "getUserCollectionCount",
      "outputs": [
        {
          "internalType": "uint256",
          "name": "",
          "type": "uint256"
        }
      ],
      "stateMutability": "view",
      "type": "function"
    },
    {
      "inputs": [
        {
          "internalType": "address",
          "name": "user",
          "type": "address"
        }
      ],
      "name": "getUserCollections",
      "outputs": [
        {
          "components": [
            {
              "internalType": "address",
              "name": "nftContract",
              "type": "address"
            },
            {
              "internalType": "address",
              "name": "owner",
              "type": "address"
            },
            {
              "internalType": "string",
              "name": "name",
              "type": "string"
            },
            {
              "internalType": "string",
              "name": "symbol",
              "type": "string"
            },
            {
              "internalType": "string",
              "name": "description",
              "type": "string"
            },
            {
              "internalType": "string",
              "name": "columns",
              "type": "string"
            },
            {
              "internalType": "uint256",
              "name": "createdAt",
              "type": "uint256"
            },
            {
              "internalType": "bool",
              "name": "isActive",
              "type": "bool"
            }
          ],
          "internalType": "struct NFTFactory.Collection[]",
          "name": "",
          "type": "tuple[]"
        }
      ],
      "stateMutability": "view",
      "type": "function"
    },
    {
      "inputs": [
        {
          "internalType": "address",
          "name": "nftContract",
          "type": "address"
        },
        {
          "internalType": "address",
          "name": "user",
          "type": "address"
        }
      ],
      "name": "isCollectionOwner",
      "outputs": [
        {
          "internalType": "bool",
          "name": "",
          "type": "bool"
        }
      ],
      "stateMutability": "view",
      "type": "function"
    },
    {
      "inputs": [
        {
          "internalType": "address",
          "name": "nftContract",
          "type": "address"
        },
        {
          "internalType": "address",
          "name": "to",
          "type": "address"
        }
      ],
      "name": "mintNFT",
      "outputs": [
        {
          "internalType": "uint256",
          "name": "",
          "type": "uint256"
        }
      ],
      "stateMutability": "nonpayable",
      "type": "function"
    },
    {
      "inputs": [
        {
          "internalType": "address",
          "name": "nftContract",
          "type": "address"
        },
        {
          "internalType": "string",
          "name": "cid",
          "type": "string"
        }
      ],
      "name": "setCollectionCid",
      "outputs": [],
      "stateMutability": "nonpayable",
      "type": "function"
    },
    {
      "inputs": [
        {
          "internalType": "address",
          "name": "nftContract",
          "type": "address"
        }
      ],
      "name": "toggleCollectionStatus",
      "outputs": [],
      "stateMutability": "nonpayable",
      "type": "function"
    }
  ],
  "transactionHash": "0xed34799d9a6f0b7f25f498c4674a07b550e577963fe02db83371a1ccbc891a8f",
  "args": [],
  "numDeployments": 2,
  "solcInputHash": "b24e1b3aa4b4b207226a49e82ea3c403",
  "bytecode": "0x608060405234801561001057600080fd5b50613e1a806100206000396000f3fe60806040523480156200001157600080fd5b5060043610620000fd5760003560e01c80639056a04b11620000975780639f1883d6116200006e5780639f1883d6146200024d578063e63794181462000264578063f0ee5704146200028d578063fa15927814620002b357600080fd5b80639056a04b14620001f8578063939bf6dd146200021e5780639aa5ad8c146200022757600080fd5b80636804a95811620000d85780636804a95814620001635780636f458133146200016d578063852bc07614620001865780638cf6b0e814620001cc57600080fd5b80630d40ec33146200010257806339c473251462000124578063465dcabb146200013d575b600080fd5b6200010c620002d9565b6040516200011b9190620016c0565b60405180910390f35b6200013b6200013536600462001819565b62000477565b005b620001546200014e36600462001879565b6200053d565b6040516200011b9190620018b9565b6200010c6200064f565b62000177620006b3565b6040516200011b919062001924565b620001bd6200019736600462001879565b6001600160a01b0391821660009081526001602081905260409091200154821691161490565b6040516200011b919062001940565b62000154620001dd36600462001950565b6001600160a01b031660009081526020819052604090205490565b6200020f6200020936600462001950565b620006d0565b6040516200011b919062001a3b565b60035462000154565b6200023e6200023836600462001950565b620009f1565b6040516200011b919062001ac8565b6200013b6200025e36600462001950565b62000d11565b6200027b6200027536600462001950565b62000db5565b6040516200011b949392919062001adb565b620002a46200029e36600462001bd4565b620010a5565b6040516200011b919062001c7b565b620002ca620002c436600462001c8e565b62001278565b6040516200011b919062001d6f565b60606000805b6002548110156200034e57600160006002838154811062000304576200030462001d7f565b60009182526020808320909101546001600160a01b0316835282019290925260400190206007015460ff1615620003455781620003418162001dab565b9250505b600101620002df565b5060008167ffffffffffffffff8111156200036d576200036d62001701565b60405190808252806020026020018201604052801562000397578160200160208202803683370190505b5090506000805b6002548110156200046e576001600060028381548110620003c357620003c362001d7f565b60009182526020808320909101546001600160a01b0316835282019290925260400190206007015460ff16156200046557600281815481106200040a576200040a62001d7f565b9060005260206000200160009054906101000a90046001600160a01b03168383815181106200043d576200043d62001d7f565b6001600160a01b039092166020928302919091019091015281620004618162001dab565b9250505b6001016200039e565b50909392505050565b6001600160a01b038083166000908152600160208190526040909120908101549091163314620004ba576040516311251aa160e01b815260040160405180910390fd5b6040517fb7e03bec00000000000000000000000000000000000000000000000000000000815283906001600160a01b0382169063b7e03bec906200050390869060040162001924565b600060405180830381600087803b1580156200051e57600080fd5b505af115801562000533573d6000803e3d6000fd5b5050505050505050565b6001600160a01b0380831660009081526001602081905260408220908101549192909116331462000581576040516311251aa160e01b815260040160405180910390fd5b600781015460ff16620005b15760405162461bcd60e51b8152600401620005a89062001e25565b60405180910390fd5b6040517f6a62784200000000000000000000000000000000000000000000000000000000815284906000906001600160a01b03831690636a62784290620005fd90889060040162001d6f565b6020604051808303816000875af11580156200061d573d6000803e3d6000fd5b505050506040513d601f19601f8201168201806040525081019062000643919062001e4b565b93505050505b92915050565b60606002805480602002602001604051908101604052809291908181526020018280548015620006a957602002820191906000526020600020905b81546001600160a01b031681526001909101906020018083116200068a575b5050505050905090565b6040518060600160405280603d815260200162003da8603d913981565b6200072d60405180610100016040528060006001600160a01b0316815260200160006001600160a01b0316815260200160608152602001606081526020016060815260200160608152602001600081526020016000151581525090565b6001600160a01b0380831660009081526001602081815260409283902083516101008101855281548616815292810154909416908201526002830180549193928401916200077b9062001e86565b80601f0160208091040260200160405190810160405280929190818152602001828054620007a99062001e86565b8015620007fa5780601f10620007ce57610100808354040283529160200191620007fa565b820191906000526020600020905b815481529060010190602001808311620007dc57829003601f168201915b50505050508152602001600382018054620008159062001e86565b80601f0160208091040260200160405190810160405280929190818152602001828054620008439062001e86565b8015620008945780601f10620008685761010080835404028352916020019162000894565b820191906000526020600020905b8154815290600101906020018083116200087657829003601f168201915b50505050508152602001600482018054620008af9062001e86565b80601f0160208091040260200160405190810160405280929190818152602001828054620008dd9062001e86565b80156200092e5780601f1062000902576101008083540402835291602001916200092e565b820191906000526020600020905b8154815290600101906020018083116200091057829003601f168201915b50505050508152602001600582018054620009499062001e86565b80601f0160208091040260200160405190810160405280929190818152602001828054620009779062001e86565b8015620009c85780601f106200099c57610100808354040283529160200191620009c8565b820191906000526020600020905b815481529060010190602001808311620009aa57829003601f168201915b50505091835250506006820154602082015260079091015460ff16151560409091015292915050565b6001600160a01b038116600090815260208181526040808320805482518185028101850190935280835260609492939192909184015b8282101562000d0657600084815260209081902060408051610100810182526008860290920180546001600160a01b039081168452600182015416938301939093526002830180549293929184019162000a819062001e86565b80601f016020809104026020016040519081016040528092919081815260200182805462000aaf9062001e86565b801562000b005780601f1062000ad45761010080835404028352916020019162000b00565b820191906000526020600020905b81548152906001019060200180831162000ae257829003601f168201915b5050505050815260200160038201805462000b1b9062001e86565b80601f016020809104026020016040519081016040528092919081815260200182805462000b499062001e86565b801562000b9a5780601f1062000b6e5761010080835404028352916020019162000b9a565b820191906000526020600020905b81548152906001019060200180831162000b7c57829003601f168201915b5050505050815260200160048201805462000bb59062001e86565b80601f016020809104026020016040519081016040528092919081815260200182805462000be39062001e86565b801562000c345780601f1062000c085761010080835404028352916020019162000c34565b820191906000526020600020905b81548152906001019060200180831162000c1657829003601f168201915b5050505050815260200160058201805462000c4f9062001e86565b80601f016020809104026020016040519081016040528092919081815260200182805462000c7d9062001e86565b801562000cce5780601f1062000ca25761010080835404028352916020019162000cce565b820191906000526020600020905b81548152906001019060200180831162000cb057829003601f168201915b5050509183525050600682015460208083019190915260079092015460ff161515604090910152908252600192909201910162000a27565b505050509050919050565b6001600160a01b03808216600090815260016020819052604090912090810154909116331462000d54576040516311251aa160e01b815260040160405180910390fd5b60078101805460ff19811660ff918216159081179092556040516001600160a01b038516927f79e37877969a45af2a00e507e8e00e9701442e50f51a85dae8dafc20c1341c4d9262000da99291169062001940565b60405180910390a25050565b6001600160a01b038082166000908152600160208181526040808420815161010081018352815487168152938101549095169183019190915260028401805493948594859485948594919392908401919062000e119062001e86565b80601f016020809104026020016040519081016040528092919081815260200182805462000e3f9062001e86565b801562000e905780601f1062000e645761010080835404028352916020019162000e90565b820191906000526020600020905b81548152906001019060200180831162000e7257829003601f168201915b5050505050815260200160038201805462000eab9062001e86565b80601f016020809104026020016040519081016040528092919081815260200182805462000ed99062001e86565b801562000f2a5780601f1062000efe5761010080835404028352916020019162000f2a565b820191906000526020600020905b81548152906001019060200180831162000f0c57829003601f168201915b5050505050815260200160048201805462000f459062001e86565b80601f016020809104026020016040519081016040528092919081815260200182805462000f739062001e86565b801562000fc45780601f1062000f985761010080835404028352916020019162000fc4565b820191906000526020600020905b81548152906001019060200180831162000fa657829003601f168201915b5050505050815260200160058201805462000fdf9062001e86565b80601f01602080910402602001604051908101604052809291908181526020018280546200100d9062001e86565b80156200105e5780601f1062001032576101008083540402835291602001916200105e565b820191906000526020600020905b8154815290600101906020018083116200104057829003601f168201915b5050509183525050600682015460208083019190915260079092015460ff16151560409091015281015160e082015160c09092015160009991985091965090945092505050565b6001600160a01b03808316600090815260016020819052604090912090810154606092163314620010e9576040516311251aa160e01b815260040160405180910390fd5b600781015460ff16620011105760405162461bcd60e51b8152600401620005a89062001e25565b6000835111620011345760405162461bcd60e51b8152600401620005a89062001f11565b606483511115620011595760405162461bcd60e51b8152600401620005a89062001f23565b8251849060009067ffffffffffffffff8111156200117b576200117b62001701565b604051908082528060200260200182016040528015620011a5578160200160208202803683370190505b50905060005b85518110156200126e57826001600160a01b0316636a627842878381518110620011d957620011d962001d7f565b60200260200101516040518263ffffffff1660e01b8152600401620011ff919062001d6f565b6020604051808303816000875af11580156200121f573d6000803e3d6000fd5b505050506040513d601f19601f8201168201806040525081019062001245919062001e4b565b8282815181106200125a576200125a62001d7f565b6020908102919091010152600101620011ab565b5095945050505050565b60008451600003620012b6576040517fb24986ce00000000000000000000000000000000000000000000000000000000815260040160405180910390fd5b8351600003620012f2576040517fe697f9a400000000000000000000000000000000000000000000000000000000815260040160405180910390fd5b600085856040518060600160405280603d815260200162003da8603d9139868660405162001320906200162b565b6200133095949392919062001f5f565b604051809103906000f0801580156200134d573d6000803e3d6000fd5b5060408051610100810182526001600160a01b0380841682523360208084018281528486018d8152606086018d9052608086018c905260a086018b90524260c0870152600160e08701819052600094855284845296842080548089018255908552929093208551600890930201805492851673ffffffffffffffffffffffffffffffffffffffff19938416178155905195810180549690941695909116949094179091555192935083929091829160028201906200140c908262002087565b506060820151600382019062001423908262002087565b50608082015160048201906200143a908262002087565b5060a0820151600582019062001451908262002087565b5060c0820151600682015560e0909101516007909101805460ff19169115159190911790556001600160a01b038281166000908152600160208181526040928390208551815473ffffffffffffffffffffffffffffffffffffffff19908116918716919091178255918601519281018054909216929094169190911790558201518291906002820190620014e6908262002087565b5060608201516003820190620014fd908262002087565b506080820151600482019062001514908262002087565b5060a082015160058201906200152b908262002087565b5060c0820151600682015560e0909101516007909101805460ff19169115159190911790556002805460018101825560009182527f405787fa12a823e0f2b7631cc41b3ba8828b3321ca811111fa75cd3aa3bb5ace01805473ffffffffffffffffffffffffffffffffffffffff19166001600160a01b0385161790556003805491620015b78362001dab565b91905055506001600354620015cd919062002158565b336001600160a01b0316836001600160a01b03167f15dda03048e6b54a326824d8e6259858cda5b32b239886a8cadceeeed34c92368b8b8b8b6040516200161894939291906200216e565b60405180910390a4509695505050505050565b611bda80620021ce83390190565b60006001600160a01b03821662000649565b620016568162001639565b82525050565b60006200166a83836200164b565b505060200190565b60006200167d825190565b80845260209384019383018060005b83811015620016b5578151620016a388826200165c565b9750602083019250506001016200168c565b509495945050505050565b60208082528101620016d3818462001672565b9392505050565b620016e58162001639565b8114620016f157600080fd5b50565b80356200064981620016da565b634e487b7160e01b600052604160045260246000fd5b601f19601f830116810181811067ffffffffffffffff8211171562001740576200174062001701565b6040525050565b60006200175360405190565b905062001761828262001717565b919050565b600067ffffffffffffffff82111562001783576200178362001701565b601f19601f83011660200192915050565b82818337506000910152565b6000620017b7620017b18462001766565b62001747565b905082815260208101848484011115620017d457620017d4600080fd5b620017e184828562001794565b509392505050565b600082601f830112620017ff57620017ff600080fd5b813562001811848260208601620017a0565b949350505050565b60008060408385031215620018315762001831600080fd5b60006200183f8585620016f4565b925050602083013567ffffffffffffffff811115620018615762001861600080fd5b6200186f85828601620017e9565b9150509250929050565b60008060408385031215620018915762001891600080fd5b60006200189f8585620016f4565b92505060206200186f85828601620016f4565b8062001656565b60208101620006498284620018b2565b60005b83811015620018e6578181015183820152602001620018cc565b50506000910152565b6000620018fa825190565b80845260208401935062001913818560208601620018c9565b601f01601f19169290920192915050565b60208082528101620016d38184620018ef565b80151562001656565b6020810162000649828462001937565b600060208284031215620019675762001967600080fd5b6000620018118484620016f4565b80516000906101008401906200198c85826200164b565b506020830151620019a160208601826200164b565b5060408301518482036040860152620019bb8282620018ef565b91505060608301518482036060860152620019d78282620018ef565b91505060808301518482036080860152620019f38282620018ef565b91505060a083015184820360a086015262001a0f8282620018ef565b91505060c083015162001a2660c0860182620018b2565b5060e0830151620017e160e086018262001937565b60208082528101620016d3818462001975565b6000620016d3838362001975565b600062001a67825190565b8084526020840193508360208202850162001a828560200190565b8060005b8581101562001abb578484038952815162001aa2858262001a4e565b94506020830160209a909a019992505060010162001a86565b5091979650505050505050565b60208082528101620016d3818462001a5c565b6080810162001aeb8287620018b2565b62001afa60208301866200164b565b62001b09604083018562001937565b62001b186060830184620018b2565b95945050505050565b600067ffffffffffffffff82111562001b3e5762001b3e62001701565b5060209081020190565b600062001b59620017b18462001b21565b8381529050602080820190840283018581111562001b7a5762001b7a600080fd5b835b8181101562001ba2578062001b928882620016f4565b8452506020928301920162001b7c565b5050509392505050565b600082601f83011262001bc25762001bc2600080fd5b81356200181184826020860162001b48565b6000806040838503121562001bec5762001bec600080fd5b600062001bfa8585620016f4565b925050602083013567ffffffffffffffff81111562001c1c5762001c1c600080fd5b6200186f8582860162001bac565b60006200166a8383620018b2565b600062001c43825190565b80845260209384019383018060005b83811015620016b557815162001c69888262001c2a565b97506020830192505060010162001c52565b60208082528101620016d3818462001c38565b6000806000806080858703121562001ca95762001ca9600080fd5b843567ffffffffffffffff81111562001cc55762001cc5600080fd5b62001cd387828801620017e9565b945050602085013567ffffffffffffffff81111562001cf55762001cf5600080fd5b62001d0387828801620017e9565b935050604085013567ffffffffffffffff81111562001d255762001d25600080fd5b62001d3387828801620017e9565b925050606085013567ffffffffffffffff81111562001d555762001d55600080fd5b62001d6387828801620017e9565b91505092959194509250565b602081016200064982846200164b565b634e487b7160e01b600052603260045260246000fd5b634e487b7160e01b600052601160045260246000fd5b6000600019820362001dc15762001dc162001d95565b5060010190565b602481526000602082017f4e4654466163746f72793a20436f6c6c656374696f6e206973206e6f7420616381527f7469766500000000000000000000000000000000000000000000000000000000602082015291505b5060400190565b60208082528101620006498162001dc8565b80620016e5565b8051620006498162001e37565b60006020828403121562001e625762001e62600080fd5b600062001811848462001e3e565b634e487b7160e01b600052602260045260246000fd5b60028104600182168062001e9b57607f821691505b60208210810362001eb05762001eb062001e70565b50919050565b602281526000602082017f4e4654466163746f72793a204e6f20726563697069656e74732070726f76696481527f65640000000000000000000000000000000000000000000000000000000000006020820152915062001e1e565b60208082528101620006498162001eb6565b602080825281016200064981601f81527f4e4654466163746f72793a20546f6f206d616e7920726563697069656e747300602082015260400190565b60a0808252810162001f728188620018ef565b9050818103602083015262001f888187620018ef565b9050818103604083015262001f9e8186620018ef565b9050818103606083015262001fb48185620018ef565b9050818103608083015262001fca8184620018ef565b979650505050505050565b60006200064962001fe38381565b90565b62001ff18362001fd5565b815460001960089490940293841b1916921b91909117905550565b60006200201b81848462001fe6565b505050565b818110156200203f57620020366000826200200c565b60010162002020565b5050565b601f8211156200201b576000818152602090206020601f850104810160208510156200206c5750805b620020806020601f86010483018262002020565b5050505050565b815167ffffffffffffffff811115620020a457620020a462001701565b620020b0825462001e86565b620020bd82828562002043565b6020601f831160018114620020f45760008415620020db5750858201515b600019600886021c198116600286021786555062002150565b600085815260208120601f198616915b8281101562002126578885015182556020948501946001909201910162002104565b86831015620021435784890151600019601f89166008021c191682555b6001600288020188555050505b505050505050565b8181038181111562000649576200064962001d95565b60808082528101620021818187620018ef565b90508181036020830152620021978186620018ef565b90508181036040830152620021ad8185620018ef565b90508181036060830152620021c38184620018ef565b969550505050505056fe60806040523480156200001157600080fd5b5060405162001bda38038062001bda833981016040819052620000349162000253565b338585600062000045838262000460565b50600162000054828262000460565b5050506001600160a01b0381166200008d576000604051631e4fbdf760e01b815260040162000084919062000553565b60405180910390fd5b6200009881620000d1565b506007620000a7848262000460565b506009620000b6838262000460565b50600a620000c5828262000460565b50505050505062000563565b600680546001600160a01b038381166001600160a01b0319831681179093556040519116919082907f8be0079c531659141344cd1fd0a4f28419497f9722a3daafe3b4186f6b6457e090600090a35050565b634e487b7160e01b600052604160045260246000fd5b601f19601f83011681018181106001600160401b038211171562000161576200016162000123565b6040525050565b60006200017460405190565b905062000182828262000139565b919050565b60006001600160401b03821115620001a357620001a362000123565b601f19601f83011660200192915050565b60005b83811015620001d1578181015183820152602001620001b7565b50506000910152565b6000620001f1620001eb8462000187565b62000168565b9050828152602081018484840111156200020e576200020e600080fd5b6200021b848285620001b4565b509392505050565b600082601f830112620002395762000239600080fd5b81516200024b848260208601620001da565b949350505050565b600080600080600060a08688031215620002705762000270600080fd5b85516001600160401b038111156200028b576200028b600080fd5b620002998882890162000223565b95505060208601516001600160401b03811115620002ba57620002ba600080fd5b620002c88882890162000223565b94505060408601516001600160401b03811115620002e957620002e9600080fd5b620002f78882890162000223565b93505060608601516001600160401b03811115620003185762000318600080fd5b620003268882890162000223565b92505060808601516001600160401b03811115620003475762000347600080fd5b620003558882890162000223565b9150509295509295909350565b634e487b7160e01b600052602260045260246000fd5b6002810460018216806200038d57607f821691505b602082108103620003a257620003a262000362565b50919050565b6000620003b9620003b68381565b90565b92915050565b620003ca83620003a8565b815460001960089490940293841b1916921b91909117905550565b6000620003f4818484620003bf565b505050565b8181101562000418576200040f600082620003e5565b600101620003f9565b5050565b601f821115620003f4576000818152602090206020601f85010481016020851015620004455750805b620004596020601f860104830182620003f9565b5050505050565b81516001600160401b038111156200047c576200047c62000123565b62000488825462000378565b620004958282856200041c565b6020601f831160018114620004cc5760008415620004b35750858201515b600019600886021c198116600286021786555062000528565b600085815260208120601f198616915b82811015620004fe5788850151825560209485019460019092019101620004dc565b868310156200051b5784890151600019601f89166008021c191682555b6001600288020188555050505b505050505050565b60006001600160a01b038216620003b9565b6200054d8162000530565b82525050565b60208101620003b9828462000542565b61166780620005736000396000f3fe608060405234801561001057600080fd5b50600436106101775760003560e01c8063715018a6116100d8578063b88d4fde1161008c578063e8f2c04411610066578063e8f2c044146102d8578063e985e9c5146102e0578063f2fde38b1461031c57600080fd5b8063b88d4fde146102aa578063c87b56dd146102bd578063ca00c702146102d057600080fd5b806395d89b41116100bd57806395d89b411461027c578063a22cb46514610284578063b7e03bec1461029757600080fd5b8063715018a6146102635780638da5cb5b1461026b57600080fd5b806323b872dd1161012f5780636352211e116101145780636352211e1461021d5780636a6278421461023057806370a082311461025057600080fd5b806323b872dd146101f757806342842e0e1461020a57600080fd5b8063081812fc11610160578063081812fc146101ba578063095ea7b3146101da5780631a092541146101ef57600080fd5b806301ffc9a71461017c57806306fdde03146101a5575b600080fd5b61018f61018a366004610f8a565b61032f565b60405161019c9190610fb5565b60405180910390f35b6101ad6103cc565b60405161019c9190611019565b6101cd6101c836600461103b565b61045e565b60405161019c9190611076565b6101ed6101e8366004611098565b610487565b005b6101ad610496565b6101ed6102053660046110d5565b6104a5565b6101ed6102183660046110d5565b61053e565b6101cd61022b36600461103b565b61055e565b61024361023e366004611125565b610569565b60405161019c919061114c565b61024361025e366004611125565b61059c565b6101ed6105fd565b6006546001600160a01b03166101cd565b6101ad610611565b6101ed61029236600461116d565b610620565b6101ed6102a536600461128e565b61062b565b6101ed6102b83660046112c9565b61063f565b6101ad6102cb36600461103b565b610657565b6101ad6106bf565b6101ad6106ce565b61018f6102ee366004611348565b6001600160a01b03918216600090815260056020908152604080832093909416825291909152205460ff1690565b6101ed61032a366004611125565b6106dd565b60006001600160e01b031982167f80ac58cd00000000000000000000000000000000000000000000000000000000148061039257506001600160e01b031982167f5b5e139f00000000000000000000000000000000000000000000000000000000145b806103c657507f01ffc9a7000000000000000000000000000000000000000000000000000000006001600160e01b03198316145b92915050565b6060600080546103db90611391565b80601f016020809104026020016040519081016040528092919081815260200182805461040790611391565b80156104545780601f1061042957610100808354040283529160200191610454565b820191906000526020600020905b81548152906001019060200180831161043757829003601f168201915b5050505050905090565b600061046982610734565b506000828152600460205260409020546001600160a01b03166103c6565b61049282823361076c565b5050565b6060600980546103db90611391565b6001600160a01b0382166104d8576000604051633250574960e11b81526004016104cf9190611076565b60405180910390fd5b60006104e5838333610779565b9050836001600160a01b0316816001600160a01b031614610538578382826040517f64283d7b0000000000000000000000000000000000000000000000000000000081526004016104cf939291906113bd565b50505050565b6105598383836040518060200160405280600081525061063f565b505050565b60006103c682610734565b600061057361087f565b600880549081906000610585836113fb565b919050555061059483826108c5565b90505b919050565b60006001600160a01b0382166105e15760006040517f89c62b640000000000000000000000000000000000000000000000000000000081526004016104cf9190611076565b506001600160a01b031660009081526003602052604090205490565b61060561087f565b61060f60006108df565b565b6060600180546103db90611391565b61049233838361093e565b61063361087f565b600b61049282826114a9565b61064a8484846104a5565b61053833858585856109f1565b606061066282610734565b50600061066d610b0a565b9050600081511161068d57604051806020016040528060008152506106b8565b8061069784610b19565b6040516020016106a892919061158e565b6040516020818303038152906040525b9392505050565b6060600b80546103db90611391565b6060600a80546103db90611391565b6106e561087f565b6001600160a01b0381166107285760006040517f1e4fbdf70000000000000000000000000000000000000000000000000000000081526004016104cf9190611076565b610731816108df565b50565b6000818152600260205260408120546001600160a01b0316806105945782604051637e27328960e01b81526004016104cf919061114c565b6105598383836001610bba565b6000828152600260205260408120546001600160a01b03908116908316156107a6576107a6818486610cfc565b6001600160a01b038116156107e4576107c3600085600080610bba565b6001600160a01b038116600090815260036020526040902080546000190190555b6001600160a01b03851615610813576001600160a01b0385166000908152600360205260409020805460010190555b600084815260026020526040808220805473ffffffffffffffffffffffffffffffffffffffff19166001600160a01b0389811691821790925591518793918516917fddf252ad1be2c89b69c2b068fc378daa952ba7f163c4a11628f55a4df523b3ef91a4949350505050565b6006546001600160a01b0316331461060f57336040517f118cdaa70000000000000000000000000000000000000000000000000000000081526004016104cf9190611076565b610492828260405180602001604052806000815250610d6a565b600680546001600160a01b0383811673ffffffffffffffffffffffffffffffffffffffff19831681179093556040519116919082907f8be0079c531659141344cd1fd0a4f28419497f9722a3daafe3b4186f6b6457e090600090a35050565b6001600160a01b03821661098057816040517f5b08ba180000000000000000000000000000000000000000000000000000000081526004016104cf9190611076565b6001600160a01b0383811660008181526005602090815260408083209487168084529490915290819020805460ff1916851515179055517f17307eab39ab6107e8899845ad3d59bd9653f200f220920489ca2b5937696c31906109e4908590610fb5565b60405180910390a3505050565b6001600160a01b0383163b15610b0357604051630a85bd0160e11b81526001600160a01b0384169063150b7a0290610a339088908890879087906004016115a6565b6020604051808303816000875af1925050508015610a6e575060408051601f3d908101601f19168201909252610a6b918101906115f5565b60015b610ace573d808015610a9c576040519150601f19603f3d011682016040523d82523d6000602084013e610aa1565b606091505b508051600003610ac65783604051633250574960e11b81526004016104cf9190611076565b805181602001fd5b6001600160e01b03198116630a85bd0160e11b14610b015783604051633250574960e11b81526004016104cf9190611076565b505b5050505050565b6060600780546103db90611391565b60606000610b2683610d82565b600101905060008167ffffffffffffffff811115610b4657610b466111a0565b6040519080825280601f01601f191660200182016040528015610b70576020820181803683370190505b5090508181016020015b600019017f3031323334353637383961626364656600000000000000000000000000000000600a86061a8153600a8504945084610b7a575b509392505050565b8080610bce57506001600160a01b03821615155b15610cbf576000610bde84610734565b90506001600160a01b03831615801590610c0a5750826001600160a01b0316816001600160a01b031614155b8015610c3c57506001600160a01b0380821660009081526005602090815260408083209387168352929052205460ff16155b15610c7557826040517fa9fbf51f0000000000000000000000000000000000000000000000000000000081526004016104cf9190611076565b8115610cbd5783856001600160a01b0316826001600160a01b03167f8c5be1e5ebec7d5bd14f71427d1e84f3dd0314c0f7b2291e5b200ac8c7c3b92560405160405180910390a45b505b50506000908152600460205260409020805473ffffffffffffffffffffffffffffffffffffffff19166001600160a01b0392909216919091179055565b610d07838383610e64565b610559576001600160a01b038316610d345780604051637e27328960e01b81526004016104cf919061114c565b81816040517f177e802f0000000000000000000000000000000000000000000000000000000081526004016104cf929190611616565b610d748383610eea565b6105593360008585856109f1565b6000807a184f03e93ff9f4daa797ed6e38ed64bf6a1f0100000000000000008310610dcb577a184f03e93ff9f4daa797ed6e38ed64bf6a1f010000000000000000830492506040015b6d04ee2d6d415b85acef81000000008310610df7576d04ee2d6d415b85acef8100000000830492506020015b662386f26fc100008310610e1557662386f26fc10000830492506010015b6305f5e1008310610e2d576305f5e100830492506008015b6127108310610e4157612710830492506004015b60648310610e53576064830492506002015b600a83106105945760010192915050565b60006001600160a01b03831615801590610ee25750826001600160a01b0316846001600160a01b03161480610ebe57506001600160a01b0380851660009081526005602090815260408083209387168352929052205460ff165b80610ee257506000828152600460205260409020546001600160a01b038481169116145b949350505050565b6001600160a01b038216610f14576000604051633250574960e11b81526004016104cf9190611076565b6000610f2283836000610779565b90506001600160a01b038116156105595760006040517f73c6ac6e0000000000000000000000000000000000000000000000000000000081526004016104cf9190611076565b6001600160e01b031981165b811461073157600080fd5b80356103c681610f68565b600060208284031215610f9f57610f9f600080fd5b6000610ee28484610f7f565b8015155b82525050565b602081016103c68284610fab565b60005b83811015610fde578181015183820152602001610fc6565b50506000910152565b6000610ff1825190565b808452602084019350611008818560208601610fc3565b601f01601f19169290920192915050565b602080825281016106b88184610fe7565b80610f74565b80356103c68161102a565b60006020828403121561105057611050600080fd5b6000610ee28484611030565b60006001600160a01b0382166103c6565b610faf8161105c565b602081016103c6828461106d565b610f748161105c565b80356103c681611084565b600080604083850312156110ae576110ae600080fd5b60006110ba858561108d565b92505060206110cb85828601611030565b9150509250929050565b6000806000606084860312156110ed576110ed600080fd5b60006110f9868661108d565b935050602061110a8682870161108d565b925050604061111b86828701611030565b9150509250925092565b60006020828403121561113a5761113a600080fd5b6000610ee2848461108d565b80610faf565b602081016103c68284611146565b801515610f74565b80356103c68161115a565b6000806040838503121561118357611183600080fd5b600061118f858561108d565b92505060206110cb85828601611162565b634e487b7160e01b600052604160045260246000fd5b601f19601f830116810181811067ffffffffffffffff821117156111dc576111dc6111a0565b6040525050565b60006111ee60405190565b905061059782826111b6565b600067ffffffffffffffff821115611214576112146111a0565b601f19601f83011660200192915050565b82818337506000910152565b600061124461123f846111fa565b6111e3565b90508281526020810184848401111561125f5761125f600080fd5b610bb2848285611225565b600082601f83011261127e5761127e600080fd5b8135610ee2848260208601611231565b6000602082840312156112a3576112a3600080fd5b813567ffffffffffffffff8111156112bd576112bd600080fd5b610ee28482850161126a565b600080600080608085870312156112e2576112e2600080fd5b60006112ee878761108d565b94505060206112ff8782880161108d565b935050604061131087828801611030565b925050606085013567ffffffffffffffff81111561133057611330600080fd5b61133c8782880161126a565b91505092959194509250565b6000806040838503121561135e5761135e600080fd5b600061136a858561108d565b92505060206110cb8582860161108d565b634e487b7160e01b600052602260045260246000fd5b6002810460018216806113a557607f821691505b6020821081036113b7576113b761137b565b50919050565b606081016113cb828661106d565b6113d86020830185611146565b610ee2604083018461106d565b634e487b7160e01b600052601160045260246000fd5b6000600019820361140e5761140e6113e5565b5060010190565b60006103c66114218381565b90565b61142d83611415565b815460001960089490940293841b1916921b91909117905550565b6000610559818484611424565b8181101561049257611468600082611448565b600101611455565b601f821115610559576000818152602090206020601f850104810160208510156114975750805b610b036020601f860104830182611455565b815167ffffffffffffffff8111156114c3576114c36111a0565b6114cd8254611391565b6114d8828285611470565b6020601f83116001811461150c57600084156114f45750858201515b600019600886021c1981166002860217865550610b01565b600085815260208120601f198616915b8281101561153c578885015182556020948501946001909201910161151c565b868310156115585784890151600019601f89166008021c191682555b600160028802018855505050505050505050565b6000611576825190565b611584818560208601610fc3565b9290920192915050565b600061159a828561156c565b9150610ee2828461156c565b608081016115b4828761106d565b6115c1602083018661106d565b6115ce6040830185611146565b81810360608301526115e08184610fe7565b9695505050505050565b80516103c681610f68565b60006020828403121561160a5761160a600080fd5b6000610ee284846115ea565b60408101611624828561106d565b6106b8602083018461114656fea26469706673582212201287a9388eb6200bb501df96290ae2d2f691bb6cb15b746f7c08b106ce5f15c764736f6c6343000817003368747470733a2f2f7075622d66313138306163303965303534333963393437356366363166346365303039392e72322e6465762f6d657461646174612fa2646970667358221220e2d6b025482bb7572f6b1011e4763e4ca6acc6a2d8038a43fe8594948559eccd64736f6c63430008170033",
  "devdoc": {
    "kind": "dev",
    "methods": {},
    "version": 1
  },
  "userdoc": {
    "kind": "user",
    "methods": {},
    "version": 1
  },
  "storageLayout": {
    "storage": [
      {
        "astId": 6688,
        "contract": "contracts/NFTFactory.sol:NFTFactory",
        "label": "s_userCollections",
        "offset": 0,
        "slot": "0",
        "type": "t_mapping(t_address,t_array(t_struct(Collection)6682_storage)dyn_storage)"
      },
      {
        "astId": 6693,
        "contract": "contracts/NFTFactory.sol:NFTFactory",
        "label": "s_collectionInfo",
        "offset": 0,
        "slot": "1",
        "type": "t_mapping(t_address,t_struct(Collection)6682_storage)"
      },
      {
        "astId": 6696,
        "contract": "contracts/NFTFactory.sol:NFTFactory",
        "label": "s_allCollections",
        "offset": 0,
        "slot": "2",
        "type": "t_array(t_address)dyn_storage"
      },
      {
        "astId": 6698,
        "contract": "contracts/NFTFactory.sol:NFTFactory",
        "label": "s_totalCollections",
        "offset": 0,
        "slot": "3",
        "type": "t_uint256"
      }
    ],
    "types": {
      "t_address": {
        "encoding": "inplace",
        "label": "address",
        "numberOfBytes": "20"
      },
      "t_array(t_address)dyn_storage": {
        "base": "t_address",
        "encoding": "dynamic_array",
        "label": "address[]",
        "numberOfBytes": "32"
      },
      "t_array(t_struct(Collection)6682_storage)dyn_storage": {
        "base": "t_struct(Collection)6682_storage",
        "encoding": "dynamic_array",
        "label": "struct NFTFactory.Collection[]",
        "numberOfBytes": "32"
      },
      "t_bool": {
        "encoding": "inplace",
        "label": "bool",
        "numberOfBytes": "1"
      },
      "t_mapping(t_address,t_array(t_struct(Collection)6682_storage)dyn_storage)": {
        "encoding": "mapping",
        "key": "t_address",
        "label": "mapping(address => struct NFTFactory.Collection[])",
        "numberOfBytes": "32",
        "value": "t_array(t_struct(Collection)6682_storage)dyn_storage"
      },
      "t_mapping(t_address,t_struct(Collection)6682_storage)": {
        "encoding": "mapping",
        "key": "t_address",
        "label": "mapping(address => struct NFTFactory.Collection)",
        "numberOfBytes": "32",
        "value": "t_struct(Collection)6682_storage"
      },
      "t_string_storage": {
        "encoding": "bytes",
        "label": "string",
        "numberOfBytes": "32"
      },
      "t_struct(Collection)6682_storage": {
        "encoding": "inplace",
        "label": "struct NFTFactory.Collection",
        "members": [
          {
            "astId": 6667,
            "contract": "contracts/NFTFactory.sol:NFTFactory",
            "label": "nftContract",
            "offset": 0,
            "slot": "0",
            "type": "t_address"
          },
          {
            "astId": 6669,
            "contract": "contracts/NFTFactory.sol:NFTFactory",
            "label": "owner",
            "offset": 0,
            "slot": "1",
            "type": "t_address"
          },
          {
            "astId": 6671,
            "contract": "contracts/NFTFactory.sol:NFTFactory",
            "label": "name",
            "offset": 0,
            "slot": "2",
            "type": "t_string_storage"
          },
          {
            "astId": 6673,
            "contract": "contracts/NFTFactory.sol:NFTFactory",
            "label": "symbol",
            "offset": 0,
            "slot": "3",
            "type": "t_string_storage"
          },
          {
            "astId": 6675,
            "contract": "contracts/NFTFactory.sol:NFTFactory",
            "label": "description",
            "offset": 0,
            "slot": "4",
            "type": "t_string_storage"
          },
          {
            "astId": 6677,
            "contract": "contracts/NFTFactory.sol:NFTFactory",
            "label": "columns",
            "offset": 0,
            "slot": "5",
            "type": "t_string_storage"
          },
          {
            "astId": 6679,
            "contract": "contracts/NFTFactory.sol:NFTFactory",
            "label": "createdAt",
            "offset": 0,
            "slot": "6",
            "type": "t_uint256"
          },
          {
            "astId": 6681,
            "contract": "contracts/NFTFactory.sol:NFTFactory",
            "label": "isActive",
            "offset": 0,
            "slot": "7",
            "type": "t_bool"
          }
        ],
        "numberOfBytes": "256"
      },
      "t_uint256": {
        "encoding": "inplace",
        "label": "uint256",
        "numberOfBytes": "32"
      }
    }
  }
}